:020000040800F2
:100000000050002041200008B9040008BB0400088B
:10001000BD040008BF040008C1040008000000007F
:10002000000000000000000000000000C304000801
:10003000C504000800000000C7040008C904000847
:1000400089200008892000088920000889200008EC
:1000500089200008892000088920000889200008DC
:1000600089200008892000088920000889200008CC
:1000700089200008892000088920000889200008BC
:1000800089200008892000088920000889200008AC
:10009000892000088920000889200008892000089C
:1000A00089200008D1040008892000088920000860
:1000B000892000088920000889200008892000087C
:1000C000892000088920000889200008892000086C
:1000D00089200008E1040008F104000889200008D4
:1000E00089200008892000088920000800000000FD
:1000F0000000000000000000000000000000000000
:0C01000000000000000000005FF808F1A3
:10010C0010B5054C237833B9044B13B10448AFF345
:10011C0000800123237010BD40040020000000006B
:10012C00042E000808B5034B1BB103490348AFF379
:10013C00008008BD0000000044040020042E0008CC
:10014C0070B588B0002404940594069407941C4B55
:10015C009A6942F020029A619A6902F02002019297
:10016C00019A9A6942F004029A619A6902F00402B7
:10017C000292029A9A6942F008029A619B6903F012
:10018C0008030393039B0F4D22464FF4F641284678
:10019C0000F049FE4FF4F6430493012605960694AD
:1001AC000223079304A9284600F026FD602304933C
:1001BC000594069604A9284600F01EFD08B070BDF3
:1001CC0000100240000C014030B591B0002409949D
:1001DC000B940C94019402940394049405940122BE
:1001EC0006924FF48033079308940A9202250D95DA
:1001FC000E934FF480130F9306A800F031FE0F23DB
:10020C000193029503944FF480630493059429465B
:10021C0001A801F069F811B030BD000008B500F07C
:10022C009BFAFFF7D1FFFFF78BFF00F0BFF900F04F
:10023C00D7F900F061F900224FF400615F4800F03B
:10024C00F2FD01F0DBFEC3B25D4A13701E2B02D926
:10025C0013461E221A70322000F0A2FA574C0022CC
:10026C004FF48071204600F0DEFD00224FF4007147
:10027C00204600F0D8FD01224FF40051204600F03A
:10028C00D2FD01224FF48051204600F0CCFD01221A
:10029C004FF40061204600F0C6FD012249494A484E
:1002AC0001F0EBFB08224949494801F0E6FB50E01C
:1002BC0010B9484B1B7883B1474B1B78002B48D1A6
:1002CC00464B1B78012B0FD002F0FEF8444B00225A
:1002DC001A70642000F064FA3BE0424801F00EF919
:1002EC003C4B01221A70E7E701224FF4804133485E
:1002FC0000F099FDE8E73B4801F000F9354B01228D
:10030C001A7046E02D4C00224FF40051204600F0AC
:10031C008AFD01224FF48051204600F084FD012219
:10032C004FF48041204600F07EFD43E0234C002238
:10033C004FF48051204600F076FD01224FF400511D
:10034C00204600F070FD00224FF48041204600F062
:10035C006AFD1A4C00224FF48041204600F063FDE8
:10036C004021204600F058FD1F4D287020212046CA
:10037C0000F052FD184B18702B78012B98D01B4AAB
:10038C001278012AD2D1002BD0D1124B1B78002B22
:10039C00B1D0174B1B78012BB4D0084C00224FF472
:1003AC008051204600F03FFD01224FF400512046C1
:1003BC0000F039FD02F062FCCBE700BF000C0140FD
:1003CC005005002054050020AC04002064050020DA
:1003DC00EC0400205D0400205C040020890800204F
:1003EC0061040020640400206004002094090020B3
:1003FC008A0800200268164B1B689A4200D070478E
:10040C0010B5144B00221A8008E001F07BFC05208B
:10041C0000F0C6F90F4A1388013313800E4B1B787A
:10042C001BB90C4B1B88132BEFD90C4B1B88012BC6
:10043C0005D00023094A1380074A137010BD084CDD
:10044C00207801F0BDFD01F0D9FD2070F1E700BF6F
:10045C00640400205E0400208A080020E0090020CB
:10046C00500500207047000082B00E4B9A6942F094
:10047C0001029A619A6902F001020092009ADA690B
:10048C0042F08052DA61DB6903F080530193019BE7
:10049C00054A536823F0E06343F00073536002B0E5
:1004AC00704700BF00100240000001407047FEE79B
:1004BC00FEE7FEE7FEE770477047704708B500F0AF
:1004CC005DF908BD08B5024801F050F808BD00BF41
:1004DC006404002008B5024801F056FB08BD00BFBB
:1004EC00AC04002008B5024801F04EFB08BD00BF6B
:1004FC00EC0400207047000000B587B00023029385
:10050C00039304930593009301931648164A0260D3
:10051C0040F69F724260836041F61F42C2600361E5
:10052C004361836101F01AF990B94FF4805302933F
:10053C0002A90C4801F049F968B900230093019312
:10054C006946084801F0AEF940B907B05DF804FB04
:10055C00FFF788FFE9E7FFF785FFEEE7FFF782FF7C
:10056C00F3E700BF64040020002C014002680E4B2E
:10057C009A4200D0704700B583B003F564439A6982
:10058C0042F400629A619B6903F400630193019B3E
:10059C0000220321192000F029F9192000F05AF942
:1005AC0003B05DF804FB00BF002C014008B50A48FD
:1005BC000A4B03604FF46143436000238360C360C4
:1005CC0003610C2242618361C36101F027FA00B917
:1005DC0008BDFFF747FFFBE7AC04002000380140E3
:1005EC0008B50A480A4B03604FF4E133436000231B
:1005FC008360C36003610C2242618361C36101F0BB
:10060C000DFA00B908BDFFF72DFFFBE7EC04002045
:10061C000044004070B588B0002304930593069302
:10062C0007930368354A934204D0354A934233D03A
:10063C0008B070BD334B9A6942F480429A619A6952
:10064C0002F480420092009A9A6942F004029A6184
:10065C009B6903F004030193019B4FF40073049313
:10066C000223059303230793274D04A9284600F082
:10067C00C3FA4FF48063049300240594069404A9F0
:10068C00284600F0B9FA22462146252000F0AEF8A3
:10069C00252000F0DFF8CBE71A4BDA6942F4003280
:1006AC00DA61DA6902F400320292029A9A6942F033
:1006BC0004029A619B6903F004030393039B0423D4
:1006CC00049302240594032307930F4E04A9304688
:1006DC0000F092FA08230493002505950123069354
:1006EC0004A9304600F088FA2A462146262000F05C
:1006FC007DF8262000F0AEF89AE700BF00380140E4
:10070C0000440040001002400008014010B50446AF
:10071C000E4B18784FF47A73B3FBF0F30C4A106855
:10072C00B0FBF3F000F0A4F868B90F2C01D901204C
:10073C000AE0002221464FF0FF3000F057F8054B3D
:10074C001C60002000E0012010BD00BF0400002050
:10075C00000000200800002008B5074A136843F089
:10076C0010031360032000F02FF80020FFF7CEFFDA
:10077C00FFF77AFE002008BD00200240034A1168F2
:10078C00034B1B780B441360704700BF2C050020F3
:10079C0004000020014B1868704700BF2C05002096
:1007AC0038B50446FFF7F6FF0546B4F1FF3F02D01B
:1007BC00044B1B781C44FFF7EDFF401BA042FAD3FF
:1007CC0038BD00BF04000020074AD36823F4E0635F
:1007DC001B041B0C000200F4E060034343F0BF63F6
:1007EC0043F40033D360704700ED00E030B4174B96
:1007FC00DB68C3F30223C3F10704042C28BF0424D1
:10080C001D1D062D18D9033B4FF0FF3505FA04F4D6
:10081C0021EA0401994005FA03F322EA0303194380
:10082C0000280BDB0901C9B200F1604000F5614002
:10083C0080F8001330BC70470023E5E700F00F0090
:10084C000901C9B2024B1954F4E700BF00ED00E0F6
:10085C0014ED00E0002807DB00F01F024009012323
:10086C009340024A42F82030704700BF00E100E09C
:10087C000138B0F1807F0AD2064B5860064AF0214D
:10088C0082F823100020986007221A60704701201C
:10089C00704700BF10E000E000ED00E008B590F8F4
:1008AC002130022B03D004238363012008BD02688E
:1008BC00136823F00E0313600268136823F001031E
:1008CC0013600368194A934214D0143293421FD018
:1008DC00143293421ED0143293421ED014329342DF
:1008EC001ED01432934202D04FF0807203E04FF4CA
:1008FC00801200E001220E4B5A60012380F8213057
:10090C00002380F82030436B6BB198470020CDE773
:10091C001022F0E74FF48072EDE74FF48052EAE7D3
:10092C004FF48032E7E70020C0E700BF0800024028
:10093C0000000240044B0022DA61044A136943F0C0
:10094C000103136101807047300500200020024034
:10095C00194BDB6813F0100305D0184AD36943F028
:10096C000203D3611023144AD26812F0040F06D08C
:10097C001249CA6942F00102CA6143F004030E4AEB
:10098C00D26912F0010F09D00C49CA6942F0040275
:10099C00CA610949CA6922F00102CA6140F2011216
:1009AC00934202D0044AD3607047034AD36923F0C0
:1009BC000103D361704700BF0020024030050020C6
:1009CC000A4B1B6913F0800F0BD0084B084A5A6076
:1009DC0002F188325A601B6913F0800F03D100209A
:1009EC007047002070470120704700BF0020024074
:1009FC0023016745034A136943F080031361002008
:100A0C00704700BF0020024038B50446FFF7C2FE15
:100A1C000546164BDB6813F0010F0AD0B4F1FF3F0B
:100A2C00F7D024B1FFF7B6FE401BA042F1D903204A
:100A3C001BE00E4BDB6813F0200F02D00B4B202277
:100A4C00DA600A4BDB6813F0100F0BD1074BDB6934
:100A5C0013F0010F06D1054BDB6813F0040F01D125
:100A6C00002002E0FFF774FF012038BD0020024097
:100A7C002DE9F8431E46234B1B7E012B40D0044628
:100A8C000F4690461F4B01221A764CF25030FFF75E
:100A9C00BBFF034670BB012C29D0022C24D04FF095
:100AAC0004091C464C4525D22101C1F12002A1F1BB
:100ABC00200328FA01F106FA02F2114326FA03F395
:100ACC00194389B207EB4400FFF734FF4CF2503066
:100ADC00FFF79AFF0C4B1D6925F001051D610346BC
:100AEC0040B90134E4B2DDE74FF00209D9E74FF029
:100AFC000109D6E7034A002111761846BDE8F883B0
:100B0C000223FAE73005002000200240064B0022A9
:100B1C00DA61064B1A6942F004021A611A6942F052
:100B2C0040021A61704700BF3005002000200240CF
:100B3C00064B0022DA61064B1A6942F002021A6176
:100B4C0058611A6942F040021A6170473005002062
:100B5C0000200240264B1B7E012B46D070B505466B
:100B6C000E46234B01221A760368022B20D04CF23E
:100B7C005030FFF749FF90BB4FF0FF333360AC6848
:100B8C000121EA68AB6803EB8223A34228D92046F3
:100B9C00FFF7CEFF4CF25030FFF736FF154A1369C2
:100BAC0023F0020313610146B8B904F58064E8E749
:100BBC004CF25030FFF728FF08B1012110E0012062
:100BCC00FFF7A4FF4CF25030FFF71EFF0146094A15
:100BDC00136923F00403136102E0346000E0012187
:100BEC00034B00221A76084670BD02210846704756
:100BFC003005002000200240F0B482B000252C46C5
:100C0C00A3E07F4FBB4210D007D97E4FBB420CD024
:100C1C0007F58037BB4208D013E0A7F58017BB421D
:100C2C0003D007F57027BB4207D18B68002B58D037
:100C3C00012B51D04261082503E0A7F58017BB4278
:100C4C00F3D0FF2E4FD88446FF2E4FD8A200DCF8ED
:100C5C0000300F27974023EA070305FA02F21343EB
:100C6C00CCF800304B6813F0805F6DD0664B9A69FE
:100C7C0042F001029A619B6903F001030193019B0D
:100C8C00A208971C614B53F8273004F00307BF00F0
:100C9C004FF00F0C0CFA07FC23EA0C0C5C4B98423F
:100CAC002AD003F58063984200F08A8003F58063B4
:100CBC00984200F0878003F5806398421AD0042391
:100CCC001BE0CD68BDE7CD680435BAE7CD680835C3
:100CDC00B7E7CD680C35B4E702610825B1E700250C
:100CEC00AFE70425ADE700F1040CADE7A4F1080271
:100CFC009200ACE7032300E00023BB4043EA0C0363
:100D0C000232424F47F822304B6813F4803F5BD0DD
:100D1C00404A1368334313604B6813F4003F59D0B7
:100D2C003C4A5368334353604B6813F4801F57D0CD
:100D3C00384A9368334393604B6813F4001F55D0C3
:100D4C00344AD3681E43D66001340B6833FA04F27C
:100D5C0052D00122A24003EA020632EA0303F3D185
:100D6C004B68122B3FF64DAF122B3FF66AAF01A723
:100D7C0057F823F0370C0008CF0C0008D90C0008EA
:100D8C00EB0C00084F0C00084F0C00084F0C00082F
:100D9C004F0C00084F0C00084F0C00084F0C0008BB
:100DAC004F0C00084F0C00084F0C00084F0C0008AB
:100DBC004F0C00084F0C0008D30C0008DF0C000887
:100DCC0001239AE7022398E7124A136823EA0603E1
:100DDC001360A1E70F4A536823EA06035360A3E7A5
:100DEC000C4A936823EA06039360A5E7094AD36883
:100DFC0023EA0606D660A7E702B0F0BC704700BF36
:100E0C0000002210000031100010024000000140D0
:100E1C0000080140000401408368194201D0012000
:100E2C007047002070470AB10161704709040161E5
:100E3C007047000082B0084B1B68084AA2FB0323D2
:100E4C005B0A00FB03F3019300BF019B5A1E019246
:100E5C00002BF9D102B0704700000020D34D621076
:100E6C00002800F0F18170B582B00446036813F0DD
:100E7C00010F2CD0AA4B5B6803F00C03042B1DD084
:100E8C00A74B5B6803F00C03082B12D06368B3F517
:100E9C00803F41D0002B55D103F1804303F504333F
:100EAC001A6822F480321A601A6822F480221A60BE
:100EBC0037E09B4B5B6813F4803FE7D0984B1B6883
:100ECC0013F4003F03D06368002B00F0BF8123684C
:100EDC0013F0020F75D0924B5B6813F00C0F5FD0C0
:100EEC008F4B5B6803F00C03082B54D02369002B49
:100EFC0000F089808B4B01221A60FFF74BFC0546F2
:100F0C00874B1B6813F0020F74D1FFF743FC401B97
:100F1C000228F5D903209EE1814A136843F48033FB
:100F2C001360636843B3FFF735FC05467C4B1B68C5
:100F3C0013F4003FCBD1FFF72DFC401B6428F5D9EF
:100F4C00032088E1B3F5A02F09D0754B1A6822F461
:100F5C0080321A601A6822F480221A60E1E703F1E9
:100F6C008043A3F53C331A6842F480221A601A6855
:100F7C0042F480321A60D4E7FFF70CFC0546684B4C
:100F8C001B6813F4003FA2D0FFF704FC401B64283D
:100F9C00F5D903205FE1624B5B6813F4803FA5D168
:100FAC005F4B1B6813F0020F03D02369012B40F039
:100FBC004F815B4A136823F0F803616943EAC1036C
:100FCC001360236813F0080F32D0A369002B45D0AF
:100FDC00554B01221A60FFF7DDFB0546504B5B6A4F
:100FEC0013F0020F21D1FFF7D5FB401B0228F5D9D6
:100FFC00032030E14A4A136823F0F803616943EA9D
:10100C00C1031360DDE7474B00221A60FFF7C2FBF8
:10101C000546434B1B6813F0020FD2D0FFF7BAFB07
:10102C00401B0228F5D9032015E10120FFF702FF30
:10103C00236813F0040F00F09780394BDB6913F031
:10104C00805F1DD1364BDA6942F08052DA61DB6980
:10105C0003F080530193019B012512E0324B0022D7
:10106C001A60FFF797FB05462D4B5B6A13F0020FD6
:10107C00DED0FFF78FFB401B0228F5D90320EAE0F6
:10108C0000252A4B1B6813F4807F11D0E368012BD9
:10109C0022D0002B38D103F1804303F504331A6AB4
:1010AC0022F001021A621A6A22F004021A6218E093
:1010BC001E4A136843F480731360FFF76BFB0646FC
:1010CC001A4B1B6813F4807FE0D1FFF763FB801B86
:1010DC006428F5D90320BEE0114A136A43F00103DA
:1010EC001362E36873B3FFF755FB06460C4B1B6AA0
:1010FC0013F0020F37D1FFF74DFB801B41F2883301
:10110C009842F3D90320A6E0052B11D0044B1A6AA0
:10111C0022F001021A621A6A22F004021A62E0E753
:10112C000010024000004242800442420070004025
:10113C004D4B1A6A42F004021A621A6A42F001021A
:10114C001A62CEE7FFF726FB0646474B1B6A13F0E5
:10115C00020F08D0FFF71EFB801B41F28833984228
:10116C00F3D9032077E0E5B9E369002B72D03E4A4E
:10117C00526802F00C02082A56D0022B17D03B4BB7
:10118C0000221A60FFF706FB0446374B1B6813F06E
:10119C00007F47D0FFF7FEFA001B0228F5D9032089
:1011AC0059E0314AD36923F08053D361DCE72F4BEC
:1011BC0000221A60FFF7EEFA05462B4B1B6813F062
:1011CC00007F06D0FFF7E6FA401B0228F5D9032072
:1011DC0041E0236AB3F5803F1AD023494B6823F4CE
:1011EC007413226A606A024313434B601F4B012243
:1011FC001A60FFF7CFFA04461B4B1B6813F0007FF5
:10120C000ED1FFF7C7FA001B0228F5D9032022E004
:10121C00154A536823F40033A1680B435360DCE791
:10122C00002018E0002016E0012B16D00E4B5B6856
:10123C0003F48031226A914211D103F47013626A73
:10124C0093420ED1002006E001207047012002E0FD
:10125C00012000E0002002B070BD0120FBE701205E
:10126C00F9E70120F7E700BF00100240600042429E
:10127C0086B0184B0FCB0DF1180C0CE90F0040F297
:10128C000123ADF80430144B5A6802F00C03042B04
:10129C001AD0082B1AD1C2F38343634413F8101CE1
:1012AC0012F4803F0CD00C4B5B68C3F34043634497
:1012BC0013F8143C094800FB01F0B0FBF3F006E016
:1012CC00074800FB01F002E0044800E0054806B0C6
:1012DC00704700BF342E000800100240001BB700FE
:1012EC0000093D0000127A00002800F0A08070B5C3
:1012FC000D460446524B1B6803F007038B420BD27E
:10130C004F4A136823F007030B431360136803F071
:10131C0007038B4240F08D80236813F0020F17D027
:10132C0013F0040F04D0474A536843F4E06353604E
:10133C00236813F0080F04D0424A536843F46053F7
:10134C005360404A536823F0F003A1680B43536089
:10135C00236813F0010F31D06368012B20D0022BCE
:10136C0025D0384A126812F0020F64D035494A6809
:10137C0022F0030213434B60FFF70CFA0646314B85
:10138C005B6803F00C036268B3EB820F16D0FFF7B7
:10139C0001FA801B41F288339842F0D9032045E0D2
:1013AC00284A126812F4003FE0D101203EE0254AA1
:1013BC00126812F0007FD9D1012037E0204B1B6856
:1013CC0003F00703AB420AD91D4A136823F0070345
:1013DC002B431360136803F00703AB422DD1236832
:1013EC0013F0040F06D0174A536823F4E063E16846
:1013FC000B435360236813F0080F07D0114A53684E
:10140C0023F46053216943EAC1035360FFF730FFB3
:10141C000C4B5B68C3F303130B4AD35CD8400B4BE8
:10142C0018600B4B1868FFF771F9002070BD012094
:10143C0070470120FAE70120F8E70120F6E700BF2A
:10144C0000200240001002401C2E0008000000206A
:10145C0008000020014B1868704700BF00000020F6
:10146C0008B5FFF7F7FF044B5B68C3F30223034A8D
:10147C00D35CD84008BD00BF001002402C2E0008E1
:10148C0008B5FFF7E7FF044B5B68C3F3C223034ABD
:10149C00D35CD84008BD00BF001002402C2E0008C1
:1014AC0030B4036A056A25F001050562846924F0ED
:1014BC00F00444EA021423F00A030B438461036230
:1014CC0030BC704730B4056A25F01005056284699C
:1014DC00036A24F4704444EA023423F0A00343EA80
:1014EC0001138461036230BC7047836823F070037E
:1014FC000B4343F0070383607047000090F83D30C6
:10150C00DBB2012B27D1022380F83D300268D3686F
:10151C0043F00103D3600368114A934210D0B3F136
:10152C00804F0DD0A2F59432934209D002F580621F
:10153C00934205D01A6842F001021A6000207047ED
:10154C009A6802F00702062A07D01A6842F00102D4
:10155C001A6000207047012070470020704700BFC0
:10156C00002C0140704770477047704710B5044617
:10157C0003681A6912F0020F11D0DA6812F0020F28
:10158C000DD06FF002021A610123037703689B6987
:10159C0013F0030F70D0FFF7E6FF002323772368C7
:1015AC001A6912F0040F12D0DA6812F0040F0ED080
:1015BC006FF004021A610223237723689B6913F4EA
:1015CC00407F5FD02046FFF7CEFF002323772368B0
:1015DC001A6912F0080F12D0DA6812F0080F0ED048
:1015EC006FF008021A61042323772368DB6913F078
:1015FC00030F4ED02046FFF7B6FF00232377236856
:10160C001A6912F0100F12D0DA6812F0100F0ED007
:10161C006FF010021A61082323772368DB6913F437
:10162C00407F3DD02046FFF79EFF002323772368A1
:10163C001A6912F0010F03D0DA6812F0010F36D1DB
:10164C0023681A6912F0800F03D0DA6812F0800F49
:10165C0034D123681A6912F0400F03D0DA6812F003
:10166C00400F32D123681A6912F0200F03D0DA68C8
:10167C0012F0200F30D110BDFFF774FF2046FFF79A
:10168C0073FF8AE72046FFF76DFF2046FFF76CFFDC
:10169C009BE72046FFF766FF2046FFF765FFACE7A8
:1016AC002046FFF75FFF2046FFF75EFFBDE76FF0B8
:1016BC0001021A612046FEF79DFEC1E76FF0800221
:1016CC001A61204600F023F9C3E76FF040021A615B
:1016DC002046FFF74AFFC5E76FF020021A6120464B
:1016EC0000F014F9C7E7000003681B4A90420AD0C7
:1016FC00B0F1804F07D0A2F59432904203D002F59E
:10170C008062904203D123F070034A681343124A5B
:10171C0090420AD0B0F1804F07D0A2F5943290429B
:10172C0003D002F58062904203D123F44073CA685F
:10173C00134323F080034A69134303608B68C3622D
:10174C000B688362044B984202D0012343617047BB
:10175C000B690363F9E700BF002C014040B310B5DF
:10176C00044690F83D30F3B1022384F83D30214615
:10177C0051F8040BFFF7B8FF012384F8463084F8C6
:10178C003E3084F83F3084F8403084F8413084F89F
:10179C00423084F8433084F8443084F8453084F87F
:1017AC003D30002010BD80F83C30FEF7DFFEDBE75B
:1017BC000120704710B4846824F47F4442EA032269
:1017CC000A432243826010BC704790F83C30012BD6
:1017DC0066D010B50446012380F83C30022380F813
:1017EC003D300268936823F47F4323F077039360C2
:1017FC000B68602B40D022D8402B47D00BD9502BF4
:10180C000ED1CA6849680068FFF74AFE502120686B
:10181C00FFF76BFE04E0202B0CD008D9302B09D03D
:10182C00012384F83D30002084F83C0010BD0BB13E
:10183C00102BF5D119462068FFF757FEF0E7702BF7
:10184C000ED0B3F5005FEBD1CB684A6889680068AD
:10185C00FFF7B0FF2268936843F480439360DFE79F
:10186C00CB684A6889680068FFF7A4FF2268936810
:10187C0043F077039360D3E7CA6849680068FFF7C1
:10188C0021FE60212068FFF730FEC9E7CA6849686D
:10189C000068FFF705FE40212068FFF726FEBFE732
:1018AC000220704790F83C30012B2BD030B4012330
:1018BC0080F83C30022380F83D3003685C689D68FA
:1018CC0024F070040A6822435A6003680E4A93425B
:1018DC000AD0B3F1804F07D0A2F59432934203D0D3
:1018EC0002F58062934204D125F080054A681543C5
:1018FC009D60012380F83D30002380F83C30184671
:10190C0030BC704702207047002C01407047704774
:10191C000268D36823F49073D3600268536923F090
:10192C0001035361202380F83A30704790F8393026
:10193C00DBB2212B01D0022070478368B3F5805FA6
:10194C0017D0036A5A1C02621A7803685A60C38C57
:10195C009BB2013B9BB2C3844BB90268D36823F0A2
:10196C008003D3600268D36843F04003D360002047
:10197C0070470369002BE4D1036A1B880268C3F328
:10198C0008035360036A02330362E0E710B50446B0
:10199C000268136923F44053C1680B4313618368D5
:1019AC000269134342691A430168CB6823F4B053AC
:1019BC0023F00C031343CB600268536923F4407388
:1019CC0081690B4353610268124B9A421FD0FFF797
:1019DC0047FD00EB800303EB830362689200B3FBCB
:1019EC00F2F20D48A0FB02314909642303FB1123D9
:1019FC001B013233A0FB03235B0903F0F00202EB63
:101A0C00011203F00F03216813448B6010BDFFF724
:101A1C0037FDDEE7003801401F85EB5158B310B598
:101A2C00044690F839300BB3242384F839302268FB
:101A3C00D36823F40053D3602046FFF7A7FF226836
:101A4C00136923F4904313612268536923F02A032A
:101A5C0053612268D36843F40053D3600020E063E1
:101A6C00202384F8393084F83A3010BD80F83830AF
:101A7C00FEF7D0FDD8E70120704790F83A30DBB282
:101A8C00202B20D109B312B390F83830012B20D081
:101A9C0081628285C2850023C363222280F83A20AA
:101AAC0080F838300168CA6842F48072CA600168F4
:101ABC004A6942F001024A610168CA6842F0200298
:101ACC00CA601846704702207047012070470120F9
:101ADC00704702207047704708B50168CA6822F049
:101AEC004002CA60202280F83920FFF7F4FF002062
:101AFC0008BD08B590F83A30DBB2222B41D183688F
:101B0C00B3F5805F14D0826AB3F5805F02D0E3B97D
:101B1C000369D3B903685B681370836A013383620A
:101B2C00C38D9BB2013B9BB2C385A3B1002008BD02
:101B3C000269002AE7D1826A03685B68C3F3080371
:101B4C001380836A02338362EAE703685B6803F0FD
:101B5C007F031370E1E70268D36823F02003D3609E
:101B6C000268D36823F48073D3600268536923F04E
:101B7C0001035361202380F83A3000F099FA0020D9
:101B8C00D5E70220D3E7704710B504460268136806
:101B9C00D168526913F00F0005D113F0200F02D059
:101BAC0011F0200F13D128B112F0010213D111F44E
:101BBC00907F10D113F0800F02D011F0800F6CD1F8
:101BCC0013F0400F02D011F0400F6AD110BD204627
:101BDC00FFF78FFFFAE713F0010F06D011F4807FA7
:101BEC0003D0E06B40F00100E06313F0040F04D06D
:101BFC001AB1E06B40F00200E06313F0020F04D066
:101C0C001AB1E06B40F00400E06313F0080F07D04A
:101C1C0011F0200F00D11AB1E26B42F00802E2631E
:101C2C00E26B002AD2D013F0200F02D011F0200F5B
:101C3C0021D123685B6903F04003E26B12F0080FBB
:101C4C0000D123B32046FFF763FE23685A6912F0D4
:101C5C00400F18D05A6922F040025A61636B73B17D
:101C6C00124A5A63606BFEF719FE0028AED0606B07
:101C7C00436B9847AAE72046FFF73BFFD9E720467E
:101C8C00FFF781FFA2E72046FFF77DFF9EE7204686
:101C9C00FFF779FF0023E36398E72046FFF746FE42
:101CAC0094E72046FFF718FF90E700BFBD1C000823
:101CBC0008B5406A0023C385C384FFF764FF08BDE1
:101CCC00421C00231846994209DD10B412F8014B4E
:101CDC002044C0B201339942F8DC10BC7047704705
:101CEC0009E0074B1B6813F0400FFAD010F8011BEA
:101CFC00034B596011464B1EDAB20029F1D17047E3
:101D0C000044004000B585B0BB238DF804300022A0
:101D1C008DF8052027238DF806308DF80720032237
:101D2C008DF8082022228DF809208DF80A30102316
:101D3C008DF80B3083238DF80C307E238DF80D300D
:101D4C000A2101A8FFF7CCFF05B05DF804FB0000E9
:101D5C0000B589B000231E4A1370BB228DF80420F5
:101D6C008DF805300C228DF806208DF807301322E3
:101D7C008DF8082001228DF809208DF80A308DF895
:101D8C000B308DF80C3020228DF80D2060228DF850
:101D9C000E208DF80F300B2B0AD803F10C020D49D5
:101DAC00C95C08A8024402F81C1C0133DBB2F2E740
:101DBC00172101A8FFF784FF8DF81C007E238DF8F6
:101DCC001D301A2101A8FFF78BFF09B05DF804FB49
:101DDC00900800205805002000B585B0BB238DF875
:101DEC00003000238DF8013039228DF802208DF857
:101DFC00033009228DF804208DF805308DF806305B
:101E0C008DF807308DF8083002228DF809208DF8F6
:101E1C000A308DF80B308DF80C308DF80D000D213B
:101E2C006846FFF74DFF8DF80E007E238DF80F30BE
:101E3C0010216846FFF754FF05B05DF804FB000065
:101E4C0000B589B000231E4A1370BB228DF8042004
:101E5C008DF805300C228DF806208DF807301322F2
:101E6C008DF8082021228DF809208DF80A308DF884
:101E7C000B308DF80C3020228DF80D2060228DF85F
:101E8C000E208DF80F300B2B0AD803F10C020D49E4
:101E9C00C95C08A8024402F81C1C0133DBB2F2E74F
:101EAC00172101A8FFF70CFF8DF81C007E238DF87D
:101EBC001D301A2101A8FFF713FF09B05DF804FBD0
:101ECC00900800205805002000B585B0BB238DF884
:101EDC00003000238DF8013039228DF802208DF866
:101EEC00033009228DF804208DF805308DF806306A
:101EFC008DF807308DF8083001228DF809208DF807
:101F0C000A3002228DF80B208DF80C3006238DF848
:101F1C000D300D216846FFF7D3FE8DF80E007E23A1
:101F2C008DF80F3010216846FFF7DAFE05B05DF82A
:101F3C0004FB000000B589B0BB238DF804300023EE
:101F4C008DF8053049228DF806208DF807301522C2
:101F5C008DF808208DF809308DF80A308DF80B308B
:101F6C008DF80C3001228DF80D208DF80E300222E8
:101F7C008DF80F208DF8103006228DF811200B2BC8
:101F8C000BD80E4A32F8131003F10E0208A80244C3
:101F9C0002F81C1C0133DBB2F1E7192101A8FFF791
:101FAC008FFE8DF81E007E238DF81F301C2101A89A
:101FBC00FFF796FE09B05DF804FB00BFC8090020CE
:101FCC0070B586B00546FEF7FBFC00240594019421
:101FDC00094E039601230293049305A901A8FEF769
:101FEC00B9FD2A46234631460220FEF741FDFEF795
:101FFC0001FD06B070BD00BF00FC010808B5FEF77E
:10200C00DFFC014B186808BD00FC0108074B197870
:10201C00074B1B7803F12802914205DD1E2B01D0E2
:10202C000020704701207047012070476407002092
:10203C0050050020002103E00B4B5B58435004314A
:10204C000A480B4B42189A42F6D30A4A02E0002384
:10205C0042F8043B084B9A42F9D3FEF74BFA00F0D6
:10206C0037FEFEF7DBF87047582E00080000002002
:10207C003C04002040040020100A0020FEE7000071
:10208C000022094B1A70084B1B780B2B06D80749FA
:10209C00C95C0A44013304490B70F4E70AB9002007
:1020AC0070470120704700BF8E0800206406002096
:1020BC0010B5044602689F4B1B689A4205D02268F3
:1020CC009D4B1B689A4243D010BD9C4B1B78012B37
:1020DC0018D09B4B1A78131FDBB2052B03D9182A87
:1020EC0001D0152A2ED1974B1B780BB9964B1A7031
:1020FC00964B1A7096498F48FFF7BFFC8F4B012205
:10210C001A70DCE701228E498A48FFF7B6FC8D4B2A
:10211C001B789BB98F4B00221A7006E05A1C8C4915
:10212C00C95C894B99548B4B1A708A4B1B78874A24
:10213C0012789342F2D3834B01221A707F4B002208
:10214C001A70BCE701227E497A48FFF796FCB6E785
:10215C00814B1B787E2B2FD0804B1B78012B34D0DE
:10216C007D4B9B78282B36D07D4A1278022A46D09C
:10217C007C4A1278022A68D0042A7BD0492B00F0C2
:10218C008E800C2B00F09480392B00F0C280764AA4
:10219C001278012A00F0FD80222B00F02A81FF2BFF
:1021AC0092D16D4BDB797E2B40F0318108226A494C
:1021BC006148FFF762FC87E7082267495E48FFF732
:1021CC005CFC664B00221A707EE7012262495A4879
:1021DC00FFF753FC78E7654B01221A705E4BDB79F5
:1021EC007E2B05D108225C495348FFF746FC6BE770
:1021FC005A4B1A7058495048FFF73FFCF2E75C4BBA
:10220C005B7E7E2B10D1534B00221A70514B1B78E6
:10221C000B2B11D803F10C025549895C554AD1544A
:10222C0001334C4A1370F1E701224C4B1A704A49A6
:10223C004148FFF722FCE6E7494B03221A700822BB
:10224C0045493D48FFF719FC3EE7464B03221A70FF
:10225C00474B5B7E7E2B05D108223F493648FFF762
:10226C000CFC31E701223D4B1A703B493248FFF719
:10227C0004FCF1E73B4B05221A703D4B9B7B7E2BFC
:10228C0005D1082234492C48FFF7F7FB1CE7012243
:10229C00324B1A7030492848FFF7EFFBF1E7314B0E
:1022AC0004221A700F2232492348FFF7E6FB0BE792
:1022BC00314B1B88012B11D0304B1B88012B7FF429
:1022CC0003AF284B01221A70234BDB797E2B19D1DB
:1022DC00082221491848FFF7D0FBF5E6204B0122D4
:1022EC001A701D4BDB797E2B05D108221A49124836
:1022FC00FFF7C3FBE0E7194B1A7017490E48FFF7BD
:10230C00BCFBF2E7154B1A7013490B48FFF7B5FBF2
:10231C00DEE7194B1B889BBB184B1B88002B3FF42B
:10232C00D3AE104B02221A701A2211490248FFF741
:10233C00A4FBC9E6AC040020EC0400208D080020AE
:10234C0054050020940900208807002088080020EC
:10235C00940800208E080020640500208B080020C3
:10236C0090080020950900208C0800208F08002080
:10237C006406002068070020E4090020EA09002018
:10238C001A2227492748FFF778FB274B02221A709D
:10239C009AE6234BDB7B7E2B0BD1244B00221A704D
:1023AC00FFF76EFE60B9082221491E48FFF765FB56
:1023BC008AE6204B1A701E491A48FFF75EFBECE7C1
:1023CC00FFF724FE0028EED01B4B00221A7006E00B
:1023DC00134AD15C194AD1540133174A1370164B66
:1023EC001B780B2BF4D90123154A1370154A137063
:1023FC00D9E710220A490B48FFF73FFB0C4B5B79DE
:10240C00DB43114A1370094B01221A705CE601225E
:10241C00084B1A7006490348FFF72FFBC6E600BFAE
:10242C0064060020EC040020900800208C0800209A
:10243C00640500208B0800208E0800205805002021
:10244C00890800208A0800206407002010B4034685
:10245C00002210464C1E944205DD13F8014B20441B
:10246C00C0B20132F6E710BC704730B405464FF6E7
:10247C00FF7000240EE040080133DBB2072B07D8B5
:10248C0010F0010FF7D048F2084282EA5000F3E74F
:10249C000134E4B28C4203D22B5D58400023EDE7AB
:1024AC0030BC704709E0074B1B6813F0400FFAD0A3
:1024BC0010F8011B034B596011464B1EDAB2002970
:1024CC00F1D170470038014000B5A1B01D4B1B780D
:1024DC00012B15D0AA238DF8003002238DF8013082
:1024EC0001238DF8023004216846FFF7AFFF8DF809
:1024FC00030004216846FFF7D5FF21B05DF804FB0B
:10250C00AA238DF800300E238DF8013001238DF8AD
:10251C00023000230B2B09D8DA1C0B49C95C20A80C
:10252C00024402F8801C0133DBB2F3E71021684649
:10253C00FFF78CFF8DF80F00024B00221A70102150
:10254C00D8E700BF890800205805002070B5A0B05E
:10255C002F2800F27183DFE810F0300070009D002E
:10256C00BB01D4016F036F036F036F036F036F0322
:10257C006F036F036F036F036F036F036F036F03BF
:10258C006F036F036F036F036F036F036F036F03AF
:10259C006F036F036F036F036F036F03A702D70201
:1025AC006F03F00209036F036F0322036F036F03C2
:1025BC006F036F036F036F034F0305238DF8003018
:1025CC0000238DF801308DF80230FE238DF8033096
:1025DC0004216846FFF749FF83B2B24A13808DF895
:1025EC0004301B0A8DF805300624C6E10133AE4ACF
:1025FC00127812B9B3F57A7FF8D3012A1FD00723CA
:10260C008DF8003000238DF8013001228DF8022066
:10261C0002228DF803208DF804308DF80530062148
:10262C006846FFF722FF83B29E4A13808DF806306E
:10263C001B0A8DF8073008249FE10023D7E71323EA
:10264C008DF8003000238DF801308DF802208DF8C4
:10265C0003208DF804200C228DF805200B2B08D8B4
:10266C009A1D9249C95C20A8024402F8801C0133CF
:10267C00F4E712216846FFF7F8FE83B2894A13800B
:10268C008DF812301B0A8DF81330874B00221A700C
:10269C00142472E1864B01221A80002300E00133DE
:1026AC000B2B0BD8834A32F813101A1D8248825C0C
:1026BC009142F4D07E4A00211180F0E7002306E01D
:1026CC001A1D7D49895C7B4A22F8131001330B2BB0
:1026DC00F6D9774B1B88012B10D00023774A138037
:1026EC00012277490A8077490A706F4A1578002DC4
:1026FC003ED1B3F57A7F3CD20133F6E76F4B1B88A2
:10270C00012BEAD16C4B9A7CD41C6400E4B2631E9E
:10271C008DF8003000238DF8013002218DF8021065
:10272C008DF803300AE003F10C00624931F8100017
:10273C00191D20AD294401F8800C013316465500B3
:10274C00B3EB420FEFD3A11E01F0FE016846FFF779
:10275C008CFE82B2534B1A80B31C20A901EB4303AD
:10276C0003F8802C6B1D120A0B4403F8802C04E137
:10277C000025554B1C789CB9632D12D8514B012266
:10278C001A701544EDB2FFF7E3FA00234E4A1278A3
:10279C00002AEED14FF6FE729342EAD80133F5E7E8
:1027AC000024494B1B78012B44D1632C12D8454B88
:1027BC0001221A701444E4B20620FFF70DFB00232B
:1027CC00414A1278012AECD14FF6FE729342E8D8B6
:1027DC000133F5E7002200E00132022B03D14FF662
:1027EC00FE718A42F8D9012B41D90123334A138057
:1027FC00344A1370304B9D7CEC1C6400E4B2631EB5
:10280C008DF8003000238DF8013002228DF8022063
:10281C008DF803300B2B0FD81A1D2C49C95C20A83E
:10282C00024402F8801C03F10C00224A22F810101A
:10283C000133EFE70022D0E7A11E01F0FE0168464C
:10284C00FFF713FE82B2174B1A80AB1C20A901EBC9
:10285C00430303F8802C6B000533120A0B4403F876
:10286C00802C0023184A1370154A138085E000232E
:10287C00124A138005228DF800208DF801308DF856
:10288C000230FE238DF8033004216846FFF7EDFD7E
:10289C0083B2044A13808DF804301B0A8DF805307E
:1028AC000624DEE796090020890800205805002040
:1028BC00E20900209809002088070020E609002082
:1028CC00E40900208A0800209008002068070020F6
:1028DC0005238DF8003000238DF8013003228DF88C
:1028EC0002208DF8033004216846FFF7BEFD83B249
:1028FC00B74A13808DF804301B0A8DF80530062476
:10290C003BE0B44B01221A80002300E001330B2B77
:10291C000ED803F10802B0498A5CB04921F81320A3
:10292C00AF49C95C8A42F1D0AA4A00211180EDE777
:10293C00A84B1B88012B04D0AA4B01221A80002320
:10294C0022E005238DF8003000238DF8013004219E
:10295C008DF802108DF803306846FFF786FD83B2C0
:10296C009B4A13808DF804301B0A8DF80530002328
:10297C009C4A13809C4A1370062421466846FFF734
:10298C0091FD20B070BD0133984A15781DB9B3F58F
:10299C007A7FF8D300E00025934B1C787CB9632D2B
:1029AC000ED80135EDB2FFF74BFA00238E4A1278A0
:1029BC00002AF1D18E4A9342EED80133F6E7002477
:1029CC00894B1B78012B12D1632C0ED80134E4B245
:1029DC00FFF77AFA0023844A1278012AF0D14FF6D5
:1029EC00FE729342ECD80133F5E7002200E000229E
:1029FC00022B07D14FF6FE718A4201D80132F7E75C
:102A0C00002400E00024784B1B78032B32D1632C7C
:102A1C000ED80134E4B2FFF78DFA0023724A127813
:102A2C00032AF0D14FF6FE729342ECD80133F5E74E
:102A3C00002200E00132042B03D14FF6FE718A42D2
:102A4C00F8D9022B18D905238DF8003000238DF806
:102A5C00013004218DF802108DF803306846FFF721
:102A6C0004FD83B25A4A13808DF804301B0A8DF88A
:102A7C0005307CE70022DEE705238DF800300023CB
:102A8C008DF801308DF80230FE238DF803300421CF
:102A9C006846FFF7EAFC83B24D4A13808DF8043088
:102AAC001B0A8DF8053062E70D238DF800300023EA
:102ABC008DF8013021228DF802208DF8033003228D
:102ACC008DF804203F218DF8051009218DF8061092
:102ADC008DF807203E228DF808208DF80930454BE3
:102AEC001B788DF80A30FF238DF80B300C216846CB
:102AFC00FFF7BBFC83B2364A13808DF80C301B0AEF
:102B0C008DF80D300E2438E705238DF800300023A6
:102B1C008DF8013022228DF802208DF8033004212B
:102B2C006846FFF7A2FC83B2294A13808DF8043063
:102B3C001B0A8DF8053006241FE705238DF800309D
:102B4C0000238DF8013024228DF802208DF80330FB
:102B5C0004216846FFF789FC83B21D4A13808DF867
:102B6C0004301B0A8DF80530062406E705238DF882
:102B7C00003000238DF8013025228DF802208DF8CD
:102B8C00033004216846FFF770FC83B2104A1380AF
:102B9C008DF804301B0A8DF805300624EDE605236C
:102BAC008DF8003000238DF8013028228DF802209A
:102BBC008DF8033004216846FFF757FC83B2044AB2
:102BCC0013808DF804301B0A8DF805300624D4E6EA
:102BDC0096090020E809002088070020C809002079
:102BEC0058050020EA0900209509002089080020DA
:102BFC003F0D0300500500201C4BDA781C4B1A705B
:102C0C001C4B01221A8005238DF8003000238DF80F
:102C1C0001302F228DF802208DF8033004216846F4
:102C2C00FFF723FC83B2144A13808DF804301B0A7F
:102C3C008DF805300624A0E605238DF8003000231E
:102C4C008DF801308DF80230FE238DF8033004210D
:102C5C006846FFF70AFC83B2074A13808DF80430EC
:102C6C001B0A8DF80530062487E600BF8807002074
:102C7C0050050020E00900209609002038B5114BC2
:102C8C0000221A70104C2578691EC9B22046FFF735
:102C9C00ECFB80B20D4B18806378013BDBB2FD2B53
:102CAC0004D9C3B26A1EA25C934203D00020FFF782
:102CBC004DFC38BD635DB3EB102FF7D1A078FFF757
:102CCC0045FCF6E7940900208807002096090020AF
:102CDC0070B50D4E0D4D761BB61006D0002455F870
:102CEC00043B01349847A642F9D1094E094D00F036
:102CFC0083F8761BB61006D0002455F8043B01343B
:102D0C009847A642F9D170BD4C2E00084C2E0008F5
:102D1C00542E00084C2E0008024B13B1024800F050
:102D2C0005B8704700000000452D0008002301463F
:102D3C001A46184600F01AB838B5084B084D5B1BFC
:102D4C009C1007D0043B1D44013C55F804399847AE
:102D5C00002CF9D1BDE8384000F054B8582E0008CA
:102D6C00542E0008704700BF704700BF2DE9F04794
:102D7C00DFF880A00646DAF8000098460F46914628
:102D8C00FFF7F0FF1A4B1B68D3F8484124B3656872
:102D9C001F2D26DC5EB96B1C0235DAF8000063606F
:102DAC0044F82570FFF7E0FF0020BDE8F087012311
:102DBC0004EB8501C1F88890D4F88821AB401A4304
:102DCC00022EC4F88821C1F80881E4D1D4F88C21F2
:102DDC001343C4F88C31DEE703F5A674C3F84841FD
:102DEC00D5E7DAF80000FFF7BFFF4FF0FF30DCE764
:102DFC00482E000838040020F8B500BFF8BC08BC09
:102E0C009E467047F8B500BFF8BC08BC9E4670479C
:102E1C00000000000000000001020304060708097E
:102E2C000000000001020304020304050607080960
:102E3C000A0B0C0D0E0F10100000000010000020EB
:082E4C00252D000831010008EA
:042E54000D01000864
:102E58000024F40001000000100000000000000041
:102E680000000000FC02002064030020CC030020C6
:102E7800000000000000000000000000000000004A
:102E8800000000000000000000000000000000003A
:102E9800000000000000000000000000000000002A
:102EA800000000000000000000000000000000001A
:102EB800000000000000000000000000000000000A
:102EC80000000000000000000000000000000000FA
:102ED80000000000000000000000000000000000EA
:102EE80000000000000000000000000000000000DA
:102EF80000000000000000000000000000000000CA
:102F080000000000000000000100000000000000B8
:102F18000E33CDAB34126DE6ECDE05000B0000007D
:102F28000000000000000000000000000000000099
:102F38000000000000000000000000000000000089
:102F48000000000000000000000000000000000079
:102F58000000000000000000000000000000000069
:0C3288000000000000000000EC09002025
:04000005080020418E
:00000001FF
