:020000040800F2
:10000000005000209D1F0008090400080B04000890
:100010000D0400080F04000811040008000000008F
:1000200000000000000000000000000013040008B1
:100030001504000800000000170400081904000857
:10004000E51F0008E51F0008E51F0008E51F000880
:10005000E51F0008E51F0008E51F0008E51F000870
:10006000E51F0008E51F0008E51F0008E51F000860
:10007000E51F0008E51F0008E51F0008E51F000850
:10008000E51F0008E51F0008E51F0008E51F000840
:10009000E51F0008E51F0008E51F0008E51F000830
:1000A000E51F000821040008E51F0008E51F0008FF
:1000B000E51F0008E51F0008E51F0008E51F000810
:1000C000E51F0008E51F0008E51F0008E51F000800
:1000D000E51F00083104000841040008E51F00087E
:1000E000E51F0008E51F0008E51F000800000000EC
:1000F0000000000000000000000000000000000000
:0C01000000000000000000005FF808F1A3
:10010C0010B5054C237833B9044B13B10448AFF345
:10011C0000800123237010BD40040020000000006B
:10012C00802D000808B5034B1BB103490348AFF3FE
:10013C00008008BD0000000044040020802D000851
:10014C0030B589B000240494059406940794184B98
:10015C009A6942F020029A619A6902F02002019297
:10016C00019A9A6942F004029A619A6902F00402B7
:10017C000292029A9A6942F008029A619B6903F012
:10018C0008030393039B0B4D22464FF4F041284682
:10019C0000F0F0FD4FF4F043049301230593069413
:1001AC000223079304A9284600F0D2FC09B030BD05
:1001BC0000100240000C014030B591B02822002103
:1001CC0006A802F015FD00240194029403940494F3
:1001DC000594012206924FF4803307930A9202256C
:1001EC000D950E934FF480130F9306A800F0DEFDCF
:1001FC000F230193029503944FF4806304930594A9
:10020C00294601A801F016F811B030BD08B500F070
:10021C004BFAFFF7D1FFFFF793FF00F06FF900F0F7
:10022C0087F900F011F900224FF400613B4800F00F
:10023C00A1FD01F08FFEC3B2394A13701E2B02D9F7
:10024C0013461E221A70322000F052FA334C01224F
:10025C004FF40051204600F08DFD01224FF48051E7
:10026C00204600F087FD01224FF40061204600F08B
:10027C0081FD01222B492C4801F0ABFB08222B49B4
:10028C002B4801F0A6FB1BE02A4801F0DDF82A4BB5
:10029C0001221A701CE0214C00224FF40051204620
:1002AC0000F068FD01224FF48051204600F062FD01
:1002BC0001224FF48041204600F05CFD02F04AFC24
:1002CC001E4B1B78012B15D11B4B1B78002BDBD045
:1002DC001B4B1B78012BDED0104C00224FF48051AD
:1002EC00204600F047FD01224FF40051204600F05B
:1002FC0041FDE3E7094C00224FF48051204600F009
:10030C0039FD01224FF40051204600F033FD00224C
:10031C004FF48041204600F02DFDD1E7000C014048
:10032C005005002054050020A8040020640500207E
:10033C00E8040020600400205C04002094090020E4
:10034C008A0800200268164B1B689A4200D070473E
:10035C0010B5144B00221A8008E001F07FFC052038
:10036C0000F0C6F90F4A1388013313800E4B1B782B
:10037C001BB90C4B1B88132BEFD90C4B1B88012B77
:10038C0005D00023094A1380074A137010BD084C8E
:10039C00207801F0C1FD01F0DDFD2070F1E700BF18
:1003AC00600400205E0400208A080020E009002080
:1003BC00500500207047000082B00E4B9A6942F045
:1003CC0001029A619A6902F001020092009ADA69BC
:1003DC0042F08052DA61DB6903F080530193019B98
:1003EC00054A536823F0E06343F00073536002B096
:1003FC00704700BF00100240000001407047FEE74C
:10040C00FEE7FEE7FEE770477047704708B500F05F
:10041C005DF908BD08B5024801F04EF808BD00BFF3
:10042C006004002008B5024801F05EFB08BD00BF67
:10043C00A804002008B5024801F056FB08BD00BF17
:10044C00E80400207047000000B587B00023029339
:10045C00039304930593009301931648164A026084
:10046C0040F69F724260836041F61F42C260036196
:10047C004361836101F018F990B94FF480530293F2
:10048C0002A90C4801F048F968B9002300930193C4
:10049C006946084801F0AEF940B907B05DF804FBB5
:1004AC00FFF788FFE9E7FFF785FFEEE7FFF782FF2D
:1004BC00F3E700BF60040020002C014002680E4BE3
:1004CC009A4200D0704700B583B003F564439A6933
:1004DC0042F400629A619B6903F400630193019BEF
:1004EC0000220321192000F029F9192000F05EF9EF
:1004FC0003B05DF804FB00BF002C014008B50A48AE
:10050C000A4B03604FF46143436000238360C36074
:10051C0003610C2242618361C36101F02BFA00B9C3
:10052C0008BDFFF747FFFBE7A80400200038014097
:10053C0008B50A480A4B03604FF4E13343600023CB
:10054C008360C36003610C2242618361C36101F06B
:10055C0011FA00B908BDFFF72DFFFBE7E8040020F6
:10056C000044004070B588B00023049305930693B3
:10057C0007930368354A934204D0354A934233D0EB
:10058C0008B070BD334B9A6942F480429A619A6903
:10059C0002F480420092009A9A6942F004029A6135
:1005AC009B6903F004030193019B4FF400730493C4
:1005BC000223059303230793274D04A9284600F033
:1005CC00C7FA4FF48063049300240594069404A99D
:1005DC00284600F0BDFA22462146252000F0AEF850
:1005EC00252000F0E3F8CBE71A4BDA6942F400322D
:1005FC00DA61DA6902F400320292029A9A6942F0E4
:10060C0004029A619B6903F004030393039B042384
:10061C00049302240594032307930F4E04A9304638
:10062C0000F096FA08230493002505950123069300
:10063C0004A9304600F08CFA2A462146262000F008
:10064C007DF8262000F0B2F89AE700BF0038014090
:10065C0000440040001002400008014010B5044660
:10066C000E4B18784FF47A73B3FBF0F30C4A106806
:10067C00B0FBF3F000F0A8F868B90F2C01D90120F9
:10068C000AE0002221464FF0FF3000F057F8054BEE
:10069C001C60002000E0012010BD00BF0400002001
:1006AC00000000200800002008B5074A136843F03A
:1006BC0010031360032000F02FF80020FFF7CEFF8B
:1006CC00FFF77AFE002008BD00200240034A1168A3
:1006DC00034B1B780B441360704700BF28050020A8
:1006EC0004000020014B1868704700BF280500204B
:1006FC0038B50446FFF7F6FF0546B4F1FF3F02D0CC
:10070C00044B1B781C44FFF7EDFF401BA042FAD3AF
:10071C0038BD00BF04000020074AD36823F4E0630F
:10072C001B041B0C000200F4E060034343F0BF63A6
:10073C0043F40033D360704700ED00E000B5194B73
:10074C00DB68C3F30223C3F1070CBCF1040F28BF11
:10075C004FF0040C03F1040EBEF1060F18D9033B45
:10076C004FF0FF3E0EFA0CFC21EA0C0199400EFAF8
:10077C0003F322EA0303194300280BDB0901C9B276
:10078C0000F1604000F5614080F800135DF804FB57
:10079C000023E5E700F00F000901C9B2024B195420
:1007AC00F4E700BF00ED00E014ED00E0002807DBEB
:1007BC0000F01F02400901239340024A42F8203006
:1007CC00704700BF00E100E00138B0F1807F0BD230
:1007DC004FF0E0235861054AF02182F823100020E5
:1007EC00986107221A6170470120704700ED00E004
:1007FC0008B590F82130022B03D004238363012029
:10080C0008BD0268136823F00E03136002681368B6
:10081C0023F0010313600368194A934214D0143275
:10082C0093421FD0143293421ED0143293421ED0E6
:10083C00143293421ED01432934202D04FF0807285
:10084C0003E04FF4801200E001220E4B5A600123AA
:10085C0080F82130002380F82030436B6BB198472F
:10086C000020CDE71022F0E74FF48072EDE74FF453
:10087C008052EAE74FF48032E7E70020C0E700BF80
:10088C000800024000000240044B0022DA61044AD6
:10089C00136943F001031361018070473005002098
:1008AC0000200240194BDB6813F0100305D0184AE6
:1008BC00D36943F00203D3611023144AD26812F0B7
:1008CC00040F06D01249CA6942F00102CA6143F012
:1008DC0004030E4AD26912F0010F09D00C49CA69FF
:1008EC0042F00402CA610949CA6922F00102CA61D4
:1008FC0040F20112934202D0044AD3607047034A7B
:10090C00D36923F00103D361704700BF002002407C
:10091C00300500200A4B1B6913F0800F0BD0084BDD
:10092C00084A5A6002F188325A601B6913F0800F32
:10093C0003D100207047002070470120704700BF92
:10094C000020024023016745034A136943F08003EA
:10095C0013610020704700BF0020024038B50446E8
:10096C00FFF7C0FE0546164BDB6813F0010F0AD0EB
:10097C00B4F1FF3FF7D024B1FFF7B4FE401BA04207
:10098C00F1D903201BE00E4BDB6813F0200F02D0D3
:10099C000B4B2022DA600A4BDB6813F0100F0BD1E3
:1009AC00074BDB6913F0010F06D1054BDB6813F025
:1009BC00040F01D1002002E0FFF774FF012038BDC5
:1009CC00002002402DE9F8431E46244B1B7E012BD0
:1009DC0041D004460F469046204B01221A764CF229
:1009EC005030FFF7BBFF034678BB012C08D0022C1C
:1009FC0003D04FF004091C4607E04FF00209FAE758
:100A0C004FF00109F7E70134E4B24C451DD2210146
:100A1C00C1F12002A1F1200328FA01F106FA02F239
:100A2C00114326FA03F3194389B207EB4400FFF78D
:100A3C002BFF4CF25030FFF791FF094B1D6925F04D
:100A4C0001051D6103460028DDD0044A0021117602
:100A5C001846BDE8F8830223FAE700BF30050020F2
:100A6C0000200240064B0022DA61064B1A6942F064
:100A7C0004021A611A6942F040021A61704700BF01
:100A8C003005002000200240064B0022DA61064BA4
:100A9C001A6942F002021A6158611A6942F0400266
:100AAC001A6170473005002000200240264B1B7E47
:100ABC00012B46D070B505460E46234B01221A7603
:100ACC000368022B20D04CF25030FFF747FF90BB4D
:100ADC004FF0FF333360AC680121EA68AB6803EB7D
:100AEC008223A34228D92046FFF7CEFF4CF2503088
:100AFC00FFF734FF154A136923F002031361014613
:100B0C00B8B904F58064E8E74CF25030FFF726FFE3
:100B1C0008B1012110E00120FFF7A4FF4CF2503086
:100B2C00FFF71CFF0146094A136923F00403136104
:100B3C0002E0346000E00121034B00221A760846E3
:100B4C0070BD02210846704730050020002002408D
:100B5C0070B582B00024A446A6E0804DAA4210D005
:100B6C0007D97F4DAA420CD005F58035AA4208D092
:100B7C0013E0A5F58015AA4203D005F57025AA420D
:100B8C0007D18A68002A58D0012A51D04361082421
:100B9C0003E0A5F58015AA42F3D0BEF1FF0F4ED8A5
:100BAC000646BEF1FF0F4CD84FEA8C0233680F2576
:100BBC00954023EA050304FA02F2134333604B68B1
:100BCC0013F0805F6ED0674B9A6942F001029A6114
:100BDC009B6903F001030193019B4FEA9C02951C56
:100BEC00614B53F825600CF003039D000F23AB40C1
:100BFC0026EA03065D4B984229D003F580639842A0
:100C0C0000F08E8003F58063984200F08B8003F532
:100C1C008063984219D004231AE0CC68BDE7CC68F5
:100C2C000434BAE7CC680834B7E7CC680C34B4E7C2
:100C3C0003610824B1E70024AFE70424ADE7061DE7
:100C4C00AFE7ACF108029200B0E7032300E0002309
:100C5C00AB4033430232444D45F822304B6813F419
:100C6C00803F61D0424A136843EA0E0313604B681D
:100C7C0013F4003F5ED03E4A536843EA0E035360C0
:100C8C004B6813F4801F5BD0394A936843EA0E0318
:100C9C0093604B6813F4001F58D0354AD36843EA6D
:100CAC000E03D3600CF1010C0A6832FA0CF353D02A
:100CBC00012303FA0CF302EA030E33EA0202F1D128
:100CCC004A68122A3FF649AF122A3FF666AF01A5D1
:100CDC0055F822F08F0B0008270C0008310C000887
:100CEC00430C0008A70B0008A70B0008A70B000873
:100CFC00A70B0008A70B0008A70B0008A70B000800
:100D0C00A70B0008A70B0008A70B0008A70B0008EF
:100D1C00A70B0008A70B00082B0C0008370C0008C9
:100D2C00012395E7022393E7114A136823EA0E0384
:100D3C0013609CE70E4A536823EA0E0353609FE747
:100D4C000B4A936823EA0E039360A2E7084AD36820
:100D5C0023EA0E03D360A5E702B070BD0000221099
:100D6C00000031100010024000000140000801405A
:100D7C00000401400AB10161704709040161704728
:100D8C0082B0084B1B68084AA2FB03235B0A00FBDA
:100D9C0003F3019300BF019B5A1E0192002BF9D162
:100DAC0002B0704700000020D34D6210002800F004
:100DBC00F18170B582B00446036813F0010F2CD09A
:100DCC00994B5B6803F00C03042B1DD0964B5B68AE
:100DDC0003F00C03082B12D06368B3F5803F41D0AD
:100DEC00002B55D103F1804303F504331A6822F428
:100DFC0080321A601A6822F480221A6037E08A4B1B
:100E0C005B6813F4803FE7D0874B1B6813F4003FFB
:100E1C0003D06368002B00F0BF81236813F0020F2E
:100E2C0075D0814B5B6813F00C0F5FD07E4B5B6809
:100E3C0003F00C03082B54D02369002B00F08A809C
:100E4C007A4B01221A60FFF74DFC0546764B1B6866
:100E5C0013F0020F75D1FFF745FC401B0228F5D9A2
:100E6C0003209EE1704A136843F480331360636877
:100E7C0043B3FFF737FC05466B4B1B6813F4003F7D
:100E8C00CBD1FFF72FFC401B6428F5D9032088E158
:100E9C00B3F5A02F09D0644B1A6822F480321A6083
:100EAC001A6822F480221A60E1E703F18043A3F56B
:100EBC003C331A6842F480221A601A6842F4803279
:100ECC001A60D4E7FFF70EFC0546574B1B6813F46A
:100EDC00003FA2D0FFF706FC401B6428F5D9032085
:100EEC005FE1514B5B6813F4803FA5D14E4B1B68FF
:100EFC0013F0020F03D02369012B40F04F814A4AB3
:100F0C00136823F0F803616943EAC1031360236893
:100F1C0013F0080F33D0A369002B5CD0434B012294
:100F2C00C3F88024FFF7DEFB05463F4B5B6A13F0EA
:100F3C00020F21D1FFF7D6FB401B0228F5D9032065
:100F4C002FE1394A136823F0F803616943EAC103BE
:100F5C001360DCE7354B00221A60FFF7C3FB054634
:100F6C00314B1B6813F0020FD1D0FFF7BBFB401BBA
:100F7C000228F5D9032014E10120FFF701FF2368B3
:100F8C0013F0040F00F09680274BDB6913F0805FA1
:100F9C0034D1254BDA6942F08052DA61DB6903F017
:100FAC0080530193019B0125214B1B6813F4807F17
:100FBC0026D0E368012B3DD0002B53D103F18043A5
:100FCC0003F504331A6A22F001021A621A6A22F03B
:100FDC0004021A6233E0154B0022C3F88024FFF799
:100FEC0081FB0546104B5B6A13F0020FC7D0FFF76D
:100FFC0079FB401B0228F5D90320D2E00025D3E76A
:10100C000B4A136843F480731360FFF76BFB0646BF
:10101C00074B1B6813F4807FCBD1FFF763FB801B5E
:10102C006428F5D90320BCE00010024000004242C5
:10103C00007000405F4A136A43F001031362E368D7
:10104C0033B3FFF74FFB06465A4B1B6A13F0020FE4
:10105C002FD1FFF747FB801B41F288339842F3D91D
:10106C0003209EE0052B09D0524B1A6A22F0010294
:10107C001A621A6A22F004021A62E0E74D4B1A6AED
:10108C0042F004021A621A6A42F001021A62D6E7AE
:10109C00FFF728FB0646474B1B6A13F0020F08D0DC
:1010AC00FFF720FB801B41F288339842F3D90320D1
:1010BC0077E0E5B9E369002B72D03E4A526802F042
:1010CC000C02082A56D0022B17D03B4B00221A6672
:1010DC00FFF708FB0446374B1B6813F0007F47D023
:1010EC00FFF700FB001B0228F5D9032059E0314A19
:1010FC00D36923F08053D361DCE72F4B00221A66AF
:10110C00FFF7F0FA05462B4B1B6813F0007F06D057
:10111C00FFF7E8FA401B0228F5D9032041E0236AC7
:10112C00B3F5803F1AD023494B6823F47413226A19
:10113C00606A024313434B601F4B01221A66FFF790
:10114C00D1FA04461B4B1B6813F0007F0ED1FFF73E
:10115C00C9FA001B0228F5D9032022E0154A53686E
:10116C0023F40033A1680B435360DCE7002018E044
:10117C00002016E0012B16D00E4B5B6803F4803177
:10118C00226A914211D103F47013626A93420ED118
:10119C00002006E001207047012002E0012000E061
:1011AC00002002B070BD0120FBE70120F9E701200F
:1011BC00F7E700BF001002400000424286B0184B17
:1011CC000FCB0DF1180C0CE90F0040F20123ADF818
:1011DC000430144B5A6802F00C03042B1AD0082B61
:1011EC001AD1C2F38343634413F8100C12F4803FFA
:1011FC000CD00C4B5B68C3F34043634413F8143CB2
:10120C00094A02FB00F0B0FBF3F006E0074B03FBCE
:10121C0000F002E0044800E0054806B0704700BF4B
:10122C00B02D000800100240001BB70000093D0063
:10123C0000127A00002800F0A08070B50D4604461C
:10124C00524B1B6803F007038B420BD24F4A1368B7
:10125C0023F007030B431360136803F007038B425F
:10126C0040F08D80236813F0020F17D013F0040F99
:10127C0004D0474A536843F4E0635360236813F087
:10128C00080F04D0424A536843F460535360404AF9
:10129C00536823F0F003A1680B435360236813F0E9
:1012AC00010F31D06368012B20D0022B25D0384A96
:1012BC00126812F0020F64D035494A6822F003021A
:1012CC0013434B60FFF70EFA0646314B5B6803F095
:1012DC000C036268B3EB820F16D0FFF703FA801B86
:1012EC0041F288339842F0D9032045E0284A12682D
:1012FC0012F4003FE0D101203EE0254A126812F0C2
:10130C00007FD9D1012037E0204B1B6803F0070385
:10131C00AB420AD91D4A136823F007032B43136011
:10132C00136803F00703AB422DD1236813F0040FAD
:10133C0006D0174A536823F4E063E1680B4353600B
:10134C00236813F0080F07D0114A536823F4605335
:10135C00216943EAC1035360FFF730FF0C4B5B6814
:10136C00C3F303130B4AD35CD8400B4B18600B4BE5
:10137C001868FFF773F9002070BD01207047012039
:10138C00FAE70120F8E70120F6E700BF0020024051
:10139C0000100240982D00080000002008000020DA
:1013AC00014B1868704700BF0000002008B5FFF71C
:1013BC00F7FF044B5B68C3F30223034AD35CD840AA
:1013CC0008BD00BF00100240A82D000808B5FFF7AB
:1013DC00E7FF044B5B68C3F3C223034AD35CD840DA
:1013EC0008BD00BF00100240A82D000810B4036A0D
:1013FC00046A24F001040462846924F0F00C4CEAC1
:10140C00021223F00A030B438261036210BC704783
:10141C0010B4046A24F0100404628469036A24F48E
:10142C00704C4CEA023223F0A00343EA01138261B0
:10143C00036210BC7047836823F070030B4343F0C6
:10144C00070383607047000090F83D30DBB2012B3E
:10145C0027D1022380F83D300268D36843F00103A2
:10146C00D3600368114A934210D0B3F1804F0DD072
:10147C00A2F59432934209D002F58062934205D0D2
:10148C001A6842F001021A60002070479A6802F054
:10149C000702062A07D01A6842F001021A600020DF
:1014AC007047012070470020704700BF002C01409E
:1014BC00704770477047704710B5044603681A6947
:1014CC0012F0020F11D0DA6812F0020F0DD06FF08B
:1014DC0002021A610123037703689B6913F0030F5F
:1014EC0070D0FFF7E6FF0023237723681A6912F008
:1014FC00040F12D0DA6812F0040F0ED06FF0040251
:10150C001A610223237723689B6913F4407F5FD011
:10151C002046FFF7CEFF0023237723681A6912F0C9
:10152C00080F12D0DA6812F0080F0ED06FF0080214
:10153C001A61042323772368DB6913F0030F4ED061
:10154C002046FFF7B6FF0023237723681A6912F0B1
:10155C00100F12D0DA6812F0100F0ED06FF01002CC
:10156C001A61082323772368DB6913F4407F3DD08D
:10157C002046FFF79EFF0023237723681A6912F099
:10158C00010F03D0DA6812F0010F36D123681A6903
:10159C0012F0800F03D0DA6812F0800F34D1236878
:1015AC001A6912F0400F03D0DA6812F0400F32D1F2
:1015BC0023681A6912F0200F03D0DA6812F0200F9A
:1015CC0030D110BDFFF774FF2046FFF773FF8AE799
:1015DC002046FFF76DFF2046FFF76CFF9BE7204688
:1015EC00FFF766FF2046FFF765FFACE72046FFF7E5
:1015FC005FFF2046FFF75EFFBDE76FF001021A6147
:10160C002046FEF79FFEC1E76FF080021A6120466C
:10161C0000F027F9C3E76FF040021A612046FFF78C
:10162C004AFFC5E76FF020021A61204600F018F956
:10163C00C7E7000003681B4A90420AD0B0F1804F04
:10164C0007D0A2F59432904203D002F5806290420A
:10165C0003D123F070034A681343124A90420AD014
:10166C00B0F1804F07D0A2F59432904203D002F52E
:10167C008062904203D123F44073CA68134323F071
:10168C0080034A69134303608B68C3620B688362EF
:10169C00044B984202D00123436170470B690363EA
:1016AC00F9E700BF002C014040B310B5044690F898
:1016BC003D30F3B1022384F83D30214651F8040B40
:1016CC00FFF7B8FF012384F8463084F83E3084F8E5
:1016DC003F3084F8403084F8413084F8423084F84C
:1016EC00433084F8443084F8453084F83D30002091
:1016FC0010BD80F83C30FEF7E1FEDBE701207047BF
:10170C0010B4846824F47F4C42EA03220A4342EA70
:10171C000C02826010BC704790F83C30012B66D0F4
:10172C0010B50446012380F83C30022380F83D308C
:10173C000268936823F47F4323F0770393600B686C
:10174C00602B40D022D8402B47D00BD9502B0ED138
:10175C00CA6849680068FFF749FE50212068FFF706
:10176C006AFE04E0202B0CD008D9302B09D00123C1
:10177C0084F83D30002084F83C0010BD0BB1102BD8
:10178C00F5D119462068FFF756FEF0E7702B0ED006
:10179C00B3F5005FEBD1CB684A6889680068FFF746
:1017AC00AFFF2268936843F480439360DFE7CB6814
:1017BC004A6889680068FFF7A3FF2268936843F0C2
:1017CC0077039360D3E7CA6849680068FFF720FE87
:1017DC0060212068FFF72FFEC9E7CA6849680068D6
:1017EC00FFF704FE40212068FFF725FEBFE702202B
:1017FC007047000090F83C30012B2CD010B4012322
:10180C0080F83C30022380F83D3003685A689C68AD
:10181C0022F0700C0A6842EA0C025A6003680F4A04
:10182C0093420AD0B3F1804F07D0A2F59432934281
:10183C0003D002F58062934204D124F080044A68FC
:10184C0014439C60012380F83D30002380F83C3029
:10185C00184610BC70470220704700BF002C014096
:10186C00704770470268D36823F49073D3600268A2
:10187C00536923F001035361202380F83A307047F9
:10188C0090F83930DBB2212B01D0022070478368ED
:10189C00B3F5805F17D0036A5A1C02621A7803688A
:1018AC005A60C38C9BB2013B9BB2C3844BB9026898
:1018BC00D36823F08003D3600268D36843F04003FD
:1018CC00D360002070470369002BE4D1036A1B88A6
:1018DC000268C3F308035360036A02330362E0E750
:1018EC0010B504460268136923F44053C1680B43D6
:1018FC00136183680269134342691A430168CB6818
:10190C0023F4B05323F00C031343CB6002685369E8
:10191C0023F4407381690B4353610268134B9A4261
:10192C0020D0FFF743FD024602EB820202EB82025B
:10193C0063689B00B2FBF3F20D48A0FB023149092E
:10194C00642303FB11231B013233A0FB03235B092C
:10195C0003F0F00202EB011203F00F0321681344B1
:10196C008B6010BDFFF732FD0246DDE70038014009
:10197C001F85EB5158B310B5044690F839300BB3B2
:10198C00242384F839302268D36823F40053D360BD
:10199C002046FFF7A5FF2268136923F490431361D7
:1019AC002268536923F02A0353612268D36843F4F5
:1019BC000053D3600020E063202384F8393084F88E
:1019CC003A3010BD80F83830FEF7CCFDD8E7012056
:1019DC00704790F83A30DBB2202B23D121B32AB3D5
:1019EC0090F83830012B23D0012380F838308162F5
:1019FC008285C2850023C363222280F83A2080F8B6
:101A0C0038300168CA6842F48072CA6001684A6959
:101A1C0042F001024A610168CA6842F02002CA60C1
:101A2C00184670470220704701207047012070470C
:101A3C0002207047704708B50168CA6822F040025E
:101A4C00CA60202280F83920FFF7F4FF002008BD7F
:101A5C0008B590F83A30DBB2222B41D18368B3F54C
:101A6C00805F14D0826AB3F5805F02D0E3B903695A
:101A7C00D3B903685B681370836A01338362C38DC7
:101A8C009BB2013B9BB2C385A3B1002008BD026988
:101A9C00002AE7D1826A03685B68C3F308031380EA
:101AAC00836A02338362EAE703685B6803F07F03AF
:101ABC001370E1E70268D36823F02003D360026857
:101ACC00D36823F48073D3600268536923F0010355
:101ADC005361202380F83A3000F098FA0020D5E7C3
:101AEC000220D3E77047000010B504460268136863
:101AFC00D168526913F00F0005D113F0200F02D0FA
:101B0C0011F0200F13D128B112F0010213D111F4EE
:101B1C00907F10D113F0800F02D011F0800F6CD198
:101B2C0013F0400F02D011F0400F6AD110BD2046C7
:101B3C00FFF78EFFFAE713F0010F06D011F4807F48
:101B4C0003D0E06B40F00100E06313F0040F04D00D
:101B5C001AB1E06B40F00200E06313F0020F04D006
:101B6C001AB1E06B40F00400E06313F0080F07D0EB
:101B7C0011F0200F00D11AB1E26B42F00802E263BF
:101B8C00E26B002AD2D013F0200F02D011F0200FFC
:101B9C0021D123685B6903F04003E26B12F0080F5C
:101BAC0000D123B32046FFF75DFE23685A6912F07B
:101BBC00400F18D05A6922F040025A61636B73B11E
:101BCC00124A5A63606BFEF713FE0028AED0606BAE
:101BDC00436B9847AAE72046FFF73AFFD9E7204620
:101BEC00FFF780FFA2E72046FFF77CFF9EE7204629
:101BFC00FFF778FF0023E36398E72046FFF740FEEA
:101C0C0094E72046FFF717FF90E700BF1D1C000864
:101C1C0008B5406A0023C385C384FFF763FF08BD82
:101C2C00421C0023184604E012F801CB6044C0B2F9
:101C3C0001339942F8DC704709E0074B1B6813F03D
:101C4C00400FFAD010F8011B034B596011464B1E84
:101C5C00DAB20029F1D170470044004000B585B0DC
:101C6C00BB238DF8043000228DF8052027238DF836
:101C7C0006308DF8072003228DF8082022228DF8DB
:101C8C0009208DF80A3010238DF80B3083238DF842
:101C9C000C307E238DF80D300A2101A8FFF7CCFF04
:101CAC0005B05DF804FB000000B589B000231E4AA6
:101CBC001370BB228DF804208DF805300C228DF8A2
:101CCC0006208DF8073013228DF8082001228DF89C
:101CDC0009208DF80A308DF80B308DF80C3020224D
:101CEC008DF80D2060228DF80E208DF80F3009E054
:101CFC0003F10C020D49C95C08A8024402F81C1C33
:101D0C000133DBB20B2BF3D9172101A8FFF788FFA6
:101D1C008DF81C007E238DF81D301A2101A8FFF7C9
:101D2C008BFF09B05DF804FB9008002058050020DB
:101D3C0000B585B0BB238DF8003000238DF8013041
:101D4C0039228DF802208DF8033009228DF80420F9
:101D5C008DF805308DF806308DF807308DF8083089
:101D6C0002228DF809208DF80A308DF80B308DF891
:101D7C000C308DF80D000D216846FFF751FF8DF8E2
:101D8C000E007E238DF80F3010216846FFF754FFAC
:101D9C0005B05DF804FB000000B589B000231E4AB5
:101DAC001370BB228DF804208DF805300C228DF8B1
:101DBC0006208DF8073013228DF8082021228DF88B
:101DCC0009208DF80A308DF80B308DF80C3020225C
:101DDC008DF80D2060228DF80E208DF80F3009E063
:101DEC0003F10C020D49C95C08A8024402F81C1C42
:101DFC000133DBB20B2BF3D9172101A8FFF710FF2E
:101E0C008DF81C007E238DF81D301A2101A8FFF7D8
:101E1C0013FF09B05DF804FB900800205805002062
:101E2C0000B585B0BB238DF8003000238DF8013050
:101E3C0039228DF802208DF8033009228DF8042008
:101E4C008DF805308DF806308DF807308DF8083098
:101E5C0001228DF809208DF80A3002228DF80B2012
:101E6C008DF80C3006238DF80D300D216846FFF7E8
:101E7C00D7FE8DF80E007E238DF80F3010216846AA
:101E8C00FFF7DAFE05B05DF804FB000000B589B081
:101E9C00BB238DF8043000238DF8053049228DF8D2
:101EAC0006208DF8073015228DF808208DF80930A2
:101EBC008DF80A308DF80B308DF80C3001228DF82E
:101ECC000D208DF80E3002228DF80F208DF8103079
:101EDC0006228DF811200AE00E4A32F8131003F195
:101EEC000E0208A8024402F81C1C0133DBB20B2BB7
:101EFC00F2D9192101A8FFF793FE8DF81E007E235D
:101F0C008DF81F301C2101A8FFF796FE09B05DF873
:101F1C0004FB00BFC809002070B586B00546FEF76B
:101F2C00F9FC002405940194094E039601230293B5
:101F3C00049305A901A8FEF7B9FD2A4623463146AC
:101F4C000220FEF73FFDFEF7FFFC06B070BD00BFA0
:101F5C0000FC010808B5FEF7DDFC024BD3F8000CC1
:101F6C0008BD00BF00F00108074B1978074B1B7820
:101F7C0003F12802914205DD1E2B01D00020704791
:101F8C000120704701207047640700205005002095
:101F9C00002103E00B4B5B58435004310A480B4BB8
:101FAC0042189A42F6D30A4A02E0002342F8043B54
:101FBC00084B9A42F9D3FEF745FA00F0F5FDFEF70F
:101FCC0025F97047D42D0008000000203C040020A7
:101FDC0040040020F0090020FEE700000022094B1D
:101FEC001A7005E00849C95C0A44013305490B70B5
:101FFC00044B1B780B2BF5D90AB900207047012034
:10200C00704700BF8E0800206406002010B50446FF
:10201C000268974B1B689A4205D02268954B1B6847
:10202C009A4243D010BD944B1B78012B18D0934B84
:10203C001A78131FDBB2052B03D9182A01D0152AE5
:10204C002ED18F4B1B780BB98E4B1A708E4B1A708E
:10205C008E498748FFF7BDFC874B01221A70DCE7DD
:10206C00012286498248FFF7B4FC854B1B789BB94B
:10207C00874B00221A7006E05A1C8449C95C814BBC
:10208C009954834B1A70824B1B787F4A1278934277
:10209C00F2D37B4B01221A70774B00221A70BCE7EB
:1020AC00012276497248FFF794FCB6E7794B1B780E
:1020BC007E2B2FD0784B1B78012B34D0754B9B7813
:1020CC00282B36D0754A1278022A46D0744A1278D8
:1020DC00022A68D0042A7BD0492B00F08E800C2B6E
:1020EC0000F09480392B00F0E9806E4A1278012AB6
:1020FC0000F0FE80222B00F02B81FF2B92D1654B40
:10210C00DB797E2B40F03281082262495948FFF777
:10211C0060FC87E708225F495648FFF75AFC5E4B84
:10212C0000221A707EE701225A495248FFF751FCEF
:10213C0078E75D4B01221A70564BDB797E2B05D16B
:10214C00082254494B48FFF744FC6BE7524B1A707A
:10215C0050494848FFF73DFCF2E7544B5B7E7E2B21
:10216C0003D14B4B00221A7010E001224A4B1A701B
:10217C0048494048FFF72DFCF3E703F10C024B49AB
:10218C00895C4B4AD1540133414A1370404B1B7844
:10219C000B2BF2D9414B03221A7008223D493548CA
:1021AC00FFF717FC3EE73E4B03221A703F4B5B7E5A
:1021BC007E2B05D1082237492E48FFF70AFC31E760
:1021CC000122354B1A7033492A48FFF702FCF1E71C
:1021DC00334B05221A70354B9B7B7E2B05D1082285
:1021EC002C492448FFF7F5FB1CE701222A4B1A70F7
:1021FC0028492048FFF7EDFBF1E7294B04221A7020
:10220C000F222A491B48FFF7E4FB0BE7294B1B88DD
:10221C00012B11D0284B1B88012B7FF403AF204BD3
:10222C0001221A701B4BDB797E2B19D1082219491C
:10223C001048FFF7CEFBF5E6184B01221A70154B30
:10224C00DB797E2B05D1082212490A48FFF7C1FB26
:10225C00E0E7114B1A700F490648FFF7BAFBF2E79B
:10226C000D4B1A700B490348FFF7B3FBDEE700BFB9
:10227C00A8040020E80400208D080020540500204C
:10228C00940900208807002088080020940800206A
:10229C008E080020640500208B0800209008002088
:1022AC00950900208C0800208F080020640600206F
:1022BC0068070020E4090020EA0900202F4B1B8846
:1022CC006BB92F4B1B88002B3FF4ACAE2D4B02226D
:1022DC001A701A222C492D48FFF77BFBA2E61A2212
:1022EC0029492A48FFF775FB294B02221A7099E6F7
:1022FC00254BDB7B7E2B0BD1264B00221A70FFF774
:10230C006DFE60B9082224492048FFF762FB89E67C
:10231C00224B1A7020491D48FFF75BFBECE7FFF7D7
:10232C0023FE0028EED01E4B00221A7006E0164A3F
:10233C00D15C1C4AD1540133194A1370184B1B78C9
:10234C000B2BF4D90123184A1370184A1370D9E7D0
:10235C0010220D490D48FFF73CFB0F4B5B79DB431B
:10236C00134A13700B4B01221A705BE601220B4BC4
:10237C001A7009490548FFF72CFBC5E6E409002053
:10238C00EA0900209509002064060020E8040020DA
:10239C00900800208C080020640500208B08002089
:1023AC008E08002058050020890800208A0800208B
:1023BC006407002000B586464FF6FF704FF0000C06
:1023CC0010E040080133DBB2072B07D810F0010FE7
:1023DC00F7D048F2084282EA5000F3E70CF1010C06
:1023EC005FFA8CFC8C4504D21EF80C30584000234C
:1023FC00EAE75DF804FB000009E0074B1B6813F0EB
:10240C00400FFAD010F8011B034B596011464B1EBC
:10241C00DAB20029F1D170470038014070B5A0B094
:10242C002F2800F27583DFE810F030007500A20051
:10243C00C001D90173037303730373037303730331
:10244C0073037303730373037303730373037303D0
:10245C0073037303730373037303730373037303C0
:10246C00730373037303730373037303A802D80218
:10247C007303F1022103730373033A0373037303AE
:10248C007303730373037303530305238DF8003035
:10249C0000238DF801308DF80230FE238DF80330C7
:1024AC0004216846FFF786FF83B2A74A13808DF894
:1024BC0004301B0A8DF80530062421466846FFF7C8
:1024CC009BFF20B070BD0133A04A127812B9B3F54E
:1024DC007A7FF8D3012A1FD007238DF80030002310
:1024EC008DF8013001228DF8022002228DF8032094
:1024FC008DF804308DF8053006216846FFF75AFF39
:10250C0083B2914A13808DF806301B0A8DF8073080
:10251C000824D2E70023D7E713238DF800300023DB
:10252C008DF801308DF802208DF803208DF80420F1
:10253C000C228DF8052007E09A1D8549C95C20A85E
:10254C00024402F8801C01330B2BF5D9122168468A
:10255C00FFF730FF83B27C4A13808DF812301B0AD0
:10256C008DF81330794B00221A701424A5E7794B9F
:10257C0001221A80002303E0764A002111800133E6
:10258C000B2B08D8744A32F813101A1D7348825C4E
:10259C009142F1D1F3E7002306E01A1D6F49895CE3
:1025AC006D4A22F8131001330B2BF6D9694B1B889B
:1025BC00012B08D000236A4A1380012269490A8042
:1025CC0069490A7039E0664B1B88012BF2D1634BC9
:1025DC009D7CEC1C6400E4B2631E8DF8003000237B
:1025EC008DF8013002228DF802208DF803300AE0BC
:1025FC0003F10C01584A32F811101A1D20A802449C
:10260C0002F8801C01336E00B3EB450FF0D3A11E12
:10261C0001F0FE016846FFF7CDFE82B24A4B1A80EC
:10262C00AB1C20A901EB430303F8802C731D120A89
:10263C000B4403F8802C40E70133444A1578CDB99C
:10264C00B3F57A7FF8D307E00133484A12781AB908
:10265C004FF6FE729342F7D9444B1C7864B9632D44
:10266C000BD8414B01221A701544EDB2FFF71CFB3D
:10267C000023EAE70025EFE700243C4B1B78012BF5
:10268C0035D1632C12D8384B01221A701444E4B2A1
:10269C000620FFF74DFB0023344A1278012AECD1B7
:1026AC004FF6FE729342E8D80133F5E7002200E0C2
:1026BC000132022B03D14FF6FE718A42F8D9012B5D
:1026CC0058D90123264A1380274A1370234B9D7C2B
:1026DC00EC1C6400E4B2631E8DF8003000238DF80E
:1026EC00013002228DF802208DF803300EE000221A
:1026FC00DFE71A1D1E49C95C20A8024402F8801CA1
:10270C0003F10C00144A22F8101001330B2BF0D9F2
:10271C00A11E01F0FE016846FFF74CFE82B20A4B87
:10272C001A80AB1C20A901EB430303F8802C6B002F
:10273C000533120A0B4403F8802C00230B4A137048
:10274C00084A1380B9E600BF9609002089080020CA
:10275C0058050020E2090020980900208807002075
:10276C00E6090020E40900208A08002090080020D7
:10277C00680700200023B24A138005228DF8002040
:10278C008DF801308DF80230FE238DF803300421D2
:10279C006846FFF70FFE83B2AA4A13808DF8043007
:1027AC001B0A8DF805300624C7E705238DF8003089
:1027BC0000238DF8013003228DF802208DF80330B0
:1027CC0004216846FFF7F6FD83B29E4A13808DF80C
:1027DC0004301B0A8DF8053006246EE69A4B012254
:1027EC001A80002303E0984A0021118001330B2B3F
:1027FC000BD803F1080295498A5C954921F81320FE
:10280C009449C95C8A42EED1F0E78F4B1B88012BAF
:10281C0004D0914B01221A8000231DE005238DF872
:10282C00003000238DF8013004218DF802108DF852
:10283C0003306846FFF7BEFD83B2824A13808DF8E1
:10284C0004301B0A8DF805300023834A1380834A19
:10285C001370062431E60133814A1578ADB9B3F50E
:10286C007A7FF8D306E001337C4A127812B97D4A9C
:10287C009342F8D9794B1C78F4B9632D10D80135F3
:10288C00EDB2FFF789FA0023EEE70025F2E70133FA
:10289C00724A1278012A03D14FF6FE729342F6D98E
:1028AC006E4B1B78012B14D1632C07D80134E4B286
:1028BC00FFF7B6FA0023EBE70024F1E7002200E073
:1028CC000132022B07D14FF6FE718A42F8D900244F
:1028DC0002E00022F5E70024604B1B78032B32D179
:1028EC00632C0ED80134E4B2FFF7D0FA00235B4A14
:1028FC001278032AF0D14FF6FE729342ECD80133D2
:10290C00F5E7002200E00132042B03D14FF6FE71F3
:10291C008A42F8D9022B18D905238DF800300023F0
:10292C008DF8013004218DF802108DF803306846C3
:10293C00FFF740FD83B2434A13808DF804301B0A25
:10294C008DF8053080E70022DEE705238DF8003096
:10295C0000238DF801308DF80230FE238DF8033002
:10296C0004216846FFF726FD83B2364A13808DF8A2
:10297C0004301B0A8DF8053066E70D238DF8003006
:10298C0000238DF8013021228DF802208DF80330C0
:10299C0003228DF804203F218DF8051009218DF8B4
:1029AC0006108DF807203E228DF808208DF809308E
:1029BC002D4B1B788DF80A30FF238DF80B300C2132
:1029CC006846FFF7F7FC83B21E4A13808DF80C3073
:1029DC001B0A8DF80D300E246FE505238DF80030A1
:1029EC0000238DF8013022228DF802208DF803305F
:1029FC0004216846FFF7DEFC83B2124A13808DF87F
:102A0C0004301B0A8DF80530062456E505238DF895
:102A1C00003000238DF8013024228DF802208DF82F
:102A2C00033004216846FFF7C5FC83B2054A1380C6
:102A3C008DF804301B0A8DF8053006243DE500BFE7
:102A4C00E609002096090020E809002088070020EC
:102A5C00C809002058050020EA090020950900202B
:102A6C00890800203F0D03005005002005238DF838
:102A7C00003000238DF8013025228DF802208DF8CE
:102A8C00033004216846FFF795FC83B22D4A13806E
:102A9C008DF804301B0A8DF8053006240DE505234E
:102AAC008DF8003000238DF8013028228DF802209B
:102ABC008DF8033004216846FFF77CFC83B2214A71
:102ACC0013808DF804301B0A8DF805300624F4E4CD
:102ADC001D4BDA781D4B1A701D4B01221A800523F1
:102AEC008DF8003000238DF801302F228DF8022054
:102AFC008DF8033004216846FFF75CFC83B2114A61
:102B0C0013808DF804301B0A8DF805300624D4E4AC
:102B1C0005238DF8003000238DF801308DF802303C
:102B2C00FE238DF8033004216846FFF743FC83B283
:102B3C00044A13808DF804301B0A8DF805300624E6
:102B4C00BBE400BF96090020880700205005002038
:102B5C00E009002038B5114B00221A70104C257872
:102B6C00691EC9B22046FFF725FC80B20D4B1880B8
:102B7C006378013BDBB2FD2B04D9C3B26A1EA25CA5
:102B8C00934203D00020FFF749FC38BD635DB3EBE3
:102B9C00102FF7D1A078FFF741FCF6E7940900203D
:102BAC00880700209609002070B50D4E0D4D761B40
:102BBC00B61006D0002455F8043B01349847A642C1
:102BCC00F9D1094E094D00F0D5F8761BB61006D098
:102BDC00002455F8043B01349847A642F9D170BD46
:102BEC00C82D0008C82D0008D02D0008C82D0008DD
:102BFC00830730B548D0541E002A3FD00346CAB2D2
:102C0C0001E0013C3AD303F8012B9D07F9D1032CC9
:102C1C002DD9CDB245EA05250F2C45EA054536D907
:102C2C00A4F1100222F00F0C03F1200EE6444FEA3F
:102C3C00121C03F1100242E9045542E9025510320C
:102C4C007245F8D10CF1010214F00C0F03EB0212D7
:102C5C0004F00F0C13D0ACF1040323F00303043382
:102C6C00134442F8045B9342FBD10CF003042CB1E7
:102C7C00CAB21C4403F8012B9C42FBD130BD644604
:102C8C001346002CF4D1F9E703461446BFE71A4665
:102C9C00A446E0E7024B13B1024800F005B87047B8
:102CAC0000000000C12C0008002301461A461846FB
:102CBC0000F01AB838B5084B084D5B1B9C1007D0B8
:102CCC00043B1D44013C55F804399847002CF9D1BC
:102CDC00BDE8384000F054B8D42D0008D02D0008C1
:102CEC00704700BF704700BF2DE9F047DFF87CA0AC
:102CFC000646DAF8000098460F469146FFF7F0FFBB
:102D0C001B4B1B68D3F8484124B365681F2D26DC88
:102D1C005EB96B1C0235DAF80000636044F825706C
:102D2C00FFF7E0FF0020BDE8F087012304EB8501ED
:102D3C00C1F88890D4F88821AB401A43022EC4F80D
:102D4C008821C1F80881E4D1D4F88C211343C4F84C
:102D5C008C31DEE703F5A674C3F84841D5E7DAF801
:102D6C000000FFF7BFFF4FF0FF30DCE73804002016
:102D7C00C42D0008F8B500BFF8BC08BC9E467047CF
:0C2D8C00F8B500BFF8BC08BC9E467047BC
:102D98000000000000000000010203040607080903
:102DA80000000000010203040203040506070809E5
:102DB8000A0B0C0D0E0F1010000000001000002070
:082DC800A12C000831010008F4
:042DD0000D010008E9
:102DD4000024F400010000001000000000000000C6
:102DE40000000000FC02002064030020CC0300204B
:102DF40000000000000000000000000000000000CF
:102E040000000000000000000000000000000000BE
:102E140000000000000000000000000000000000AE
:102E2400000000000000000000000000000000009E
:102E3400000000000000000000000000000000008E
:102E4400000000000000000000000000000000007E
:102E5400000000000000000000000000000000006E
:102E6400000000000000000000000000000000005E
:102E7400000000000000000000000000000000004E
:102E8400000000000000000001000000000000003D
:102E94000E33CDAB34126DE6ECDE05000B00000002
:102EA400000000000000000000000000000000001E
:102EB400000000000000000000000000000000000E
:102EC40000000000000000000000000000000000FE
:102ED40000000000000000000000000000000000EE
:0C3204000000000000000000EC090020A9
:0400000508001F9D33
:00000001FF
